:020000040000FA
:1000000001280530A5000030A700831600308500C8
:100010003F30860083128601850106181A2886184B
:1000200031280619582886197F28061AA628861A04
:10003000AB280D282718D1280530A600CB20013089
:10004000A7000430A200A203051485140515E320BF
:10005000051085100511E320A208031D2328A70120
:100060000D282718D1280430A600CB200130A70086
:100070000330A200A2030514E3200510E320A20828
:10008000031D3A280330A200A2038514E320851043
:10009000E320A208031D44280330A200A203051593
:1000A000E3200511E320A208031D4E28A7010D2817
:1000B0002718D1280330A600CB200130A70002303A
:1000C000A200A2030514E3200510E320A208031DEB
:1000D00061280230A200A2038514E3208510E320EA
:1000E000A208031D6B280230A200A2030515E3201D
:1000F0000511E320A208031D7528A7010D28271864
:10010000D1280230A600CB200130A7000130A20088
:10011000A2030514E3200510E320A208031D88288C
:100120000130A200A2038514E3208510E320A20879
:10013000031D92280130A200A2030515E32005113A
:10014000E320A208031D9C28A7010D282718D12809
:100150000A30A5070D280F302502031CBC28851581
:10016000051606178617E320E320E320E320851118
:100170000512061386130D2825188515A5180516D2
:1001800025190617A5198617E320E320E320E320AD
:10019000850186010D2826082502031CD128A5000B
:1001A00008008515051606178617F120851105121A
:1001B00006138613F1208515051606178617F120FC
:1001C000850186010D280030A300F430A400000052
:1001D0000000000000000000A30BE728A40BE728A4
:1001E0000800F430A400000000000000000000003F
:0601F000A40BF328080037
:0401F600003400349D
:00000001FF
